:020000040800F2
:1000000000100020550B0008E50A0008E70A000868
:1000100000000000000000000000000000000000E0
:10002000000000000000000000000000E90A0008D5
:100030000000000000000000EB0A0008ED0A0008C4
:10004000A50B000800000000A50B0008A50B000888
:10005000A50B0008A50B0008A50B0008A50B0008C0
:1000600000000000A50B0008A50B0008A50B000868
:10007000A50B0008A50B0008A50B00080000000058
:10008000A50B00080000000000000000A50B000800
:1000900000000000A50B0008A50B0008A50B000838
:1000A00000000000A50B000800000000A50B0008E0
:1000B0000000000000000000000000000000000040
:1000C00010B5064C2378002B07D1054B002B02D02E
:1000D000044800E000BF0123237010BD040000208D
:1000E00000000000140C0008044B10B5002B03D0D6
:1000F0000349044800E000BF10BDC04600000000F6
:1001000008000020140C0008002243088B4274D31E
:1001100003098B425FD3030A8B4244D3030B8B4208
:1001200028D3030C8B420DD3FF22090212BA030C11
:100130008B4202D31212090265D0030B8B4219D3F2
:1001400000E0090AC30B8B4201D3CB03C01A524112
:10015000830B8B4201D38B03C01A5241430B8B425A
:1001600001D34B03C01A5241030B8B4201D30B0343
:10017000C01A5241C30A8B4201D3CB02C01A52416A
:10018000830A8B4201D38B02C01A5241430A8B422D
:1001900001D34B02C01A5241030A8B4201D30B0216
:1001A000C01A5241CDD2C3098B4201D3CB01C01A30
:1001B000524183098B4201D38B01C01A524143093A
:1001C0008B4201D34B01C01A524103098B4201D328
:1001D0000B01C01A5241C3088B4201D3CB00C01A95
:1001E000524183088B4201D38B00C01A524143080D
:1001F0008B4201D34B00C01A5241411A00D2014632
:10020000524110467047FFE701B5002000F006F8A4
:1002100002BDC0460029F7D076E770477047C04658
:1002200010B5040000F0EAFBFA218900FFF76CFF2B
:1002300000F066F8012000222100404200F030F872
:10024000002010BD1023064A10B5116800200B4392
:100250001360FFF7E5FF00F02DFC002010BDC04645
:1002600000200240024A1368013313607047C04601
:1002700020000020014B18687047C0462000002075
:1002800037B50190FFF7F6FF019C0500631C5A1E6D
:100290009341E418FFF7EEFF401BA042FAD337BDAD
:1002A00070B58901002814DA0F23C0B20340083B5F
:1002B000114A9B089B009B18032210409040FC327F
:1002C0001500114085408140DC69AC432143D96170
:1002D00070BD032583082840A840FC352E00074A3E
:1002E0009B009B18C02286402940814092009C5868
:1002F000B44321439950EBE700ED00E000E100E05A
:10030000094A431E012093420DD8C021074A0848DC
:100310005360036A09061B021B0A0B430362002099
:100320000723906013607047FFFFFF0010E000E0BC
:1003300000ED00E0F0B50B6887B002930023019157
:10034000029ADA4001D107B0F0BD01229A4003922F
:100350000399029A0A40009200D18CE0019A102180
:10036000526816008E43022E0ED107251D40AD00A7
:100370000139A940DC08A4000419276A8F430199B8
:100380000969A9400F43276203245F00BC40E4438E
:100390000568013E2540AC4603251540BD40614639
:1003A0000D430560012E0FD801998668CD6826405F
:1003B000BD40354385604668039915098E43012188
:1003C0000D409D4035434560C56801992C408D68BE
:1003D0008021BD4049052C43C4600A424BD0012115
:1003E000264C0326A5691E400D43A561A4699D08FE
:1003F0000C400594059C0F242149AD00B6006D18F2
:10040000B4409021AF68C905A743002488420CD0AE
:100410001C490134884208D01B490134884204D069
:100420001A490334884200D1023CB44000993C434D
:100430000E00AC60164CCD4327683E43D10301D477
:100440003E002E4026606768009E3E43910301D423
:100450003E002E406660A768009E3E43D10201D454
:100460003E002E40A660E668009F3743920201D40A
:100470002E403700E760013362E7C04600100240BB
:10048000000001400004004800080048000C00483B
:1004900000040140002A01D0816170478162FCE7BD
:1004A0004369594041617047F0B5036885B0050064
:1004B000DB072FD42B689B0700D581E02B681B0737
:1004C00000D5BCE02B685B0700D5DFE02B68DB06BE
:1004D0001AD56A69B54C0423012A00D04BE1616B3F
:1004E00002260B436363636B1A436263FFF7C2FE2A
:1004F0000700636B334200D136E1F821626BAB69D0
:100500008A43DB0013436363296A002900D059E161
:10051000002013E00C21A54C62680A40042A06D092
:1005200063680B40082B0BD16368DB0308D5236895
:100530009B03BFD56B68002BBCD1012005B0F0BD7B
:100540006B68012B13D1802322685B021343236065
:10055000FFF790FE80260700B60223683342A9D138
:10056000FFF788FEC01B6428F7D90320E6E7002BBD
:1005700016D123688E4A80261340236023688D4A53
:10058000B60213402360FFF775FE0700236833426D
:1005900000D18FE7FFF76EFEC01B6428F6D9E4E7B1
:1005A000052B05D180232268DB0213432360CAE7B1
:1005B00023687F4A1340236023687E4A1340C6E7BE
:1005C0000C227A4C6368134206D063681340082BF0
:1005D00010D16368DB030DD423689B0702D5EB6859
:1005E000012BAAD1F82122682B698A43DB0013432F
:1005F000236063E7EA680123002A0FD022680226FD
:1006000013432360FFF736FE070023683342E9D126
:10061000FFF730FEC01B0228F7D9A6E722680226A2
:100620009A432260FFF726FE07002368334200D179
:1006300044E7FFF71FFEC01B0228F6D995E7EA69D9
:1006400001235A4C002A10D0626A022613436362C7
:10065000FFF710FE0700636A334200D032E7FFF76E
:1006600009FEC01B0228F6D97FE7626A02269A4378
:100670006262FFF7FFFD0700636A334200D121E7A2
:10068000FFF7F8FDC01B0228F6D96EE78022002193
:10069000464C5205E3690091134208D1E3691343C4
:1006A000E361E36913400393039B012300938027D5
:1006B000414E7F0033683B4206D0AB68012B13D11B
:1006C000226A1343236230E033683B433360FFF711
:1006D000D1FD019033683B42EFD1FFF7CBFD019B89
:1006E000C01A6428F6D940E70122002B14D1236AEE
:1006F000022793432362236A033293432362FFF763
:10070000B9FD0600236A3B4225D0FFF7B3FD2B4B12
:10071000801B9842F6D928E7052B0BD1216A013BB3
:100720000B432362236A1A432262FFF7A3FD0227C9
:1007300006000DE0236A934304222362236A934355
:10074000C0E7FFF797FD1D4B801B984200D90CE7CF
:10075000236A3B42F5D0009B012B00D0B6E6E3694B
:10076000174A1340E361B1E6FFF784FDC01B02287E
:1007700000D8BEE6F9E6053203D1626B9A436263A4
:10078000BBE6626B0226134301226363636B9343F0
:100790006363FFF76FFD0700636B334200D1B3E67D
:1007A000FFF768FDC01B0228F6D9DEE60010024004
:1007B000FFFFFEFFFFFFFBFF0070004088130000FB
:1007C000FFFFFFEF0C22264C012063681340082B2B
:1007D00000D1B3E62368234A1340236002292FD1B6
:1007E000FFF748FD80260700B6042368334221D175
:1007F0000F22E36A9343EA6A1343E362696AAB6ACE
:1008000062680B43184980250A40134363608023C4
:1008100022685B0413432360FFF72CFD0600AD0440
:1008200023682B4200D073E6FFF724FD801B0228CB
:10083000F6D99AE6FFF71EFDC01B0228D5D994E62B
:10084000FFF718FD80250600AD0423682B4200D178
:100850005EE6FFF70FFD801B0228F6D985E6C0464D
:1008600000100240FFFFFFFEFFFFC2FF70B5144CF7
:1008700088B010222100684600F0BAF9210004ADCA
:1008800010221031280000F0B3F90C220D4E7368CD
:100890001A40082A11D10F206A46990C0140545C75
:1008A000F26A0240A95CDB0305D50748FFF72CFC80
:1008B000604308B070BD0548FAE70348F9E7C04651
:1008C0002C0C00080010024000127A0000093D00C4
:1008D000F7B50122434C060023680F0013408B42FA
:1008E0001CD33268930723D4D30729D40123226869
:1008F0001A40974267D333683B4C5B076AD4FFF7D3
:10090000B5FF6368394A1B061B0FD35CD840384BD0
:1009100018600020FFF784FC002008E02368934360
:100920000B432360236813409942DAD00120FEBDB7
:10093000F0202D494B688343B06803434B60D3E7F5
:10094000294D72682B68012A1AD19B03EED5032129
:100950006B688B4313436B60FFF78CFC73680190EB
:10096000012B15D10C226B681340042BBED0FFF76E
:1009700081FC019BC01A1F4B9842F3D90320D6E794
:10098000022A02D19B01E2D4D0E79B07DFD4CDE756
:10099000022B12D00C226B681342A7D0FFF76AFC1F
:1009A000019BC01A134B9842F4D9E7E7FFF762FCAA
:1009B000019BC01A0F4B9842E0D80C226B68134081
:1009C000082BF3D192E722689A43226022681A42E8
:1009D000ACD190E76368084A1340F2681343636040
:1009E0008DE7C04600200240001002404C0C000879
:1009F0000000002088130000FFF8FFFF014B18687B
:100A00007047C0460000002010B5102490B030227E
:100A1000002104A800F0F5F822000021684600F04B
:100A2000F0F8022304A80493013B07930894FFF70E
:100A30003BFD002107236846009301910291039139
:100A4000FFF746FF10B010BD30B587B0FFF7FAFBD7
:100A5000FFF7DAFF1422002101A800F0D2F880206D
:100A6000134A800251699025014351615369402125
:100A70000340902000930022C005009BFFF70AFD71
:100A80004023902001933F3B0293002301A9C0051E
:100A9000FA2403930493FFF74DFCED05A40028000E
:100AA0004021FFF7FDFC2000FFF7EAFBF7E7C04617
:100AB0000010024001200A4B82B0996901439961FC
:100AC00080219A69490502400092009ADA690A4336
:100AD000DA61DB690B400193019B02B07047C046AD
:100AE000001002407047FEE77047704710B5FFF7EF
:100AF000B9FB10BD0121114B11481A680A431A6055
:100B00005A6802405A601A680E4802401A601A6811
:100B10000D4802401A605A680C4802400F205A6083
:100B2000DA6A8243DA621A6B094802401A635A6B26
:100B30008A435A6300229A607047C0460010024000
:100B40000CB8FF08FFFFF6FEFFFFFBFFFFFFC0FF33
:100B5000ECFEFFFF0D4885460D480E490E4A002366
:100B600002E0D458C4500433C4188C42F9D30B4A61
:100B70000B4C002301E013600432A242FBD3FFF7C9
:100B8000B9FF00F011F8FFF75FFFFEE7001000204B
:100B90000000002004000020640C00080400002075
:100BA00024000020FEE7000070B500260C4D0D4C1F
:100BB000641BA410A64209D1002600F02BF80A4DB0
:100BC0000A4C641BA410A64205D170BDB300EB58BB
:100BD00098470136EEE7B300EB5898470136F2E745
:100BE0005C0C00085C0C00085C0C0008600C000841
:100BF000002310B59A4200D110BDCC5CC45401331F
:100C0000F8E703008218934200D17047197001334E
:100C1000F9E70000F8B5C046F8BC08BC9E4670472E
:0C0C2000F8B5C046F8BC08BC9E46704702
:100C2C0002030405060708090A0B0C0D0E0F101021
:100C3C000102030405060708090A0B0C0D0E0F1020
:100C4C000000000000000000010203040607080970
:040C5C00E9000008A3
:040C6000C1000008C7
:040C640000127A0000
:0400000508000B558F
:00000001FF
